S011000053656D6170686F72652E737265636F
S113000033C000004CC000004AC00000D1C0000052
S113001046C000001FC1000042C0000040C00000F4
S11300203EC000003CC000003AC000005BC10000BC
S113003036C0000034C0000032C0000030C00000F0
S11300402EC000002CC000002AC0000028C0000000
S113005026C0000025C0000022C0000020C000000F
S11300601EC000001CC0000011241FBECFEFD8E04A
S1130070DEBFCDBF11E0A0E0B1E0E6E7F5E002C0ED
S113008005900D92A230B107D9F721E0A2E0B1E0CA
S113009001C01D92AC30B207E1F781D06AC2B0CF83
S11300A01F920F920FB60F9211242F935F936F93A9
S11300B07F938F939F93AF93BF938091790024E1B3
S11300C0289FC00111246FEF70E02CD2261B2093CF
S11300D001016F5F60930001BF91AF919F918F9178
S11300E07F916F915F912F910F900FBE0F901F9092
S11300F01895813011F42A9A0895823029F495B123
S113010084E0892785B908952A980895882311F0F1
S1130110299A089529980895813011F4289A089508
S1130120823029F495B181E0892785B9089528980A
S11301300895813011F45F9A08955F98089587E0D7
S113014084B988E187B980EB8AB9EBE6F0E0808175
S113015080618083EDE6F0E0808184608083E8E65E
S1130160F0E0808185608083EFE6F0E08081836049
S113017080838AE09DE39093890080938800E1E87E
S1130180F0E080818D60808385E680937C008CEE36
S113019080937A0081E0BADF81E0CBCF0895CFDF8E
S11301A07894FFCF882311F05D9A08955D9808959F
S11301B01F920F920FB60F9211242F933F934F93D8
S11301C05F936F937F938F939F93AF93BF93EF93BB
S11301D0FF939091030181E0892780930301882391
S11301E011F180910201882321F082E080930201C1
S11301F01AC090910A0180910101981760F081E082
S11302008BDF80E096DF81E0CDDF81E08093020127
S113021080930B0108C081E07FDF81E080930201BD
S113022082E080930B01FF91EF91BF91AF919F9179
S11302308F917F916F915F914F913F912F910F908B
S11302400FBE0F901F901895882311F05C9A0895A3
S11302505C9808951F920F920FB60F9211242F935A
S11302603F934F935F936F937F938F939F93AF933A
S1130270BF93EF93FF939091030181E089278093CB
S113028003018823F1F081E054DF80E08BDF80E01C
S1130290DBDF80E041DF81E039DF80E02ADF10929C
S11302A00A0110920901109208011092070110929C
S11302B0060110920501109204011092020110929D
S11302C00B01FF91EF91BF91AF919F918F917F911E
S11302D06F915F914F913F912F910F900FBE0F90AF
S11302E01F9018951F920F920FB60F9211242F93FF
S11302F03F934F935F936F937F938F939F93AF93AA
S1130300BF93EF93FF932091040181E0820F8093C8
S113031004018DEC289F812D112486958695869560
S1130320880F982F990F990F890F2813A5C08091D2
S11303300B01811106C080910A018F5F80930A012D
S113034099C08130B9F4809108018F5F80930801CE
S1130350837051F427DF81E077DF80E0EADE1092DA
S1130360080183E080930B0180910A018F5F8093E1
S11303700A0180C08230F1F480910A0120910101C8
S1130380821740F080E00EDF81E05EDF83E080933F
S11303900B010AC090E0039630E08217930724F023
S11303A081E000DF80E0C5DE80910A018F5F8093E9
S11303B00A0160C0833009F5909107019F5F909313
S11303C007018BEA989F812D11248695282F220FEF
S11303D0820F98134FC080E09FDE80E097DE81E0BB
S11303E088DE10920A011092020110920701109205
S11303F0050184E080930B013DC0843081F4809139
S113040009018F5F80930901609100017FD09111F0
S113041031C01092090185E080930B012BC0853017
S113042081F4809108018F5F80930801837011F536
S113043060DE81E06BDE1092080186E080930B01A0
S113044019C08630B9F4909107019F5F909307011A
S11304508BEA989F812D11248695282F220F820FD5
S1130460981308C080E0F0DE81E063DE109207019B
S113047010920B011092040180910B01813079F4E8
S113048080910201823088F18091050191E0980FFA
S113049090930501843048F582E03EDE26C0823028
S11304A079F480910201823000F18091050191E09C
S11304B0980F909305018430C0F482E02DDE15C0BE
S11304C0833079F480910201823078F080910501C3
S11304D091E0980F90930501843038F482E01CDE9B
S11304E004C0853011F482E004DEFF91EF91BF91E6
S11304F0AF919F918F917F916F915F914F913F91B8
S11305002F910F900FBE0F901F901895991B79E0B3
S113051004C0991F961708F0961B881F7A95C9F78F
S11305208095089597FB072E16F4009406D077FD66
S113053008D00BD007FC05D03EF4909581959F4FD1
S11305400895709561957F4F0895AA1BBB1B51E1D7
S113055007C0AA1FBB1FA617B70710F0A61BB70B2F
S1130560881F991F5A95A9F780959095BC01CD01D4
S10905700895F894FFCF8A
S1050576080D6A
S9030000FC
